{
  "transactions": [
    {
      "hash": "0xa811c126ac5ae7876a24022e1dc6cfae56c0ef6223212146bc7a70ef6ee2eba3",
      "transactionType": "CALL",
      "contractName": null,
      "contractAddress": "0x779877a7b0d9e8603169ddbd7836e478b4624789",
      "function": "transferAndCall(address,uint256,bytes)",
      "arguments": [
        "0x9DdfaCa8183c41ad55329BdeeD9F6A8d53168B1B",
        "3000000000000000000",
        "0x81d47b91d7e8db485429638ec0a0017d177c225ea4ddde7ecb2f8107645ee1f8"
      ],
      "transaction": {
        "from": "0xcd7559aab753f89e17d50b38712e1043bbbaccca",
        "to": "0x779877a7b0d9e8603169ddbd7836e478b4624789",
        "gas": "0x14cbb",
        "value": "0x0",
        "input": "0x4000aea00000000000000000000000009ddfaca8183c41ad55329bdeed9f6a8d53168b1b00000000000000000000000000000000000000000000000029a2241af62c00000000000000000000000000000000000000000000000000000000000000000060000000000000000000000000000000000000000000000000000000000000002081d47b91d7e8db485429638ec0a0017d177c225ea4ddde7ecb2f8107645ee1f8",
        "nonce": "0xe",
        "chainId": "0xaa36a7"
      },
      "additionalContracts": [],
      "isFixedGasLimit": false
    }
  ],
  "receipts": [
    {
      "status": "0x1",
      "cumulativeGasUsed": "0x604702",
      "logs": [
        {
          "address": "0x779877a7b0d9e8603169ddbd7836e478b4624789",
          "topics": [
            "0xddf252ad1be2c89b69c2b068fc378daa952ba7f163c4a11628f55a4df523b3ef",
            "0x000000000000000000000000cd7559aab753f89e17d50b38712e1043bbbaccca",
            "0x0000000000000000000000009ddfaca8183c41ad55329bdeed9f6a8d53168b1b"
          ],
          "data": "0x00000000000000000000000000000000000000000000000029a2241af62c0000",
          "blockHash": "0x8b27c75b45f9c1eceb0100dd40030fd145b18d9ca80fcb12728c252c186c0f21",
          "blockNumber": "0x75fdd0",
          "transactionHash": "0xa811c126ac5ae7876a24022e1dc6cfae56c0ef6223212146bc7a70ef6ee2eba3",
          "transactionIndex": "0x6f",
          "logIndex": "0x64",
          "removed": false
        },
        {
          "address": "0x779877a7b0d9e8603169ddbd7836e478b4624789",
          "topics": [
            "0xe19260aff97b920c7df27010903aeb9c8d2be5d310a2c67824cf3f15396e4c16",
            "0x000000000000000000000000cd7559aab753f89e17d50b38712e1043bbbaccca",
            "0x0000000000000000000000009ddfaca8183c41ad55329bdeed9f6a8d53168b1b"
          ],
          "data": "0x00000000000000000000000000000000000000000000000029a2241af62c00000000000000000000000000000000000000000000000000000000000000000040000000000000000000000000000000000000000000000000000000000000002081d47b91d7e8db485429638ec0a0017d177c225ea4ddde7ecb2f8107645ee1f8",
          "blockHash": "0x8b27c75b45f9c1eceb0100dd40030fd145b18d9ca80fcb12728c252c186c0f21",
          "blockNumber": "0x75fdd0",
          "transactionHash": "0xa811c126ac5ae7876a24022e1dc6cfae56c0ef6223212146bc7a70ef6ee2eba3",
          "transactionIndex": "0x6f",
          "logIndex": "0x65",
          "removed": false
        },
        {
          "address": "0x9ddfaca8183c41ad55329bdeed9f6a8d53168b1b",
          "topics": [
            "0x1ced9348ff549fceab2ac57cd3a9de38edaaab274b725ee82c23e8fc8c4eec7a",
            "0x81d47b91d7e8db485429638ec0a0017d177c225ea4ddde7ecb2f8107645ee1f8"
          ],
          "data": "0x0000000000000000000000000000000000000000000000006f05b59d3b20000000000000000000000000000000000000000000000000000098a7d9b8314c0000",
          "blockHash": "0x8b27c75b45f9c1eceb0100dd40030fd145b18d9ca80fcb12728c252c186c0f21",
          "blockNumber": "0x75fdd0",
          "transactionHash": "0xa811c126ac5ae7876a24022e1dc6cfae56c0ef6223212146bc7a70ef6ee2eba3",
          "transactionIndex": "0x6f",
          "logIndex": "0x66",
          "removed": false
        }
      ],
      "logsBloom": "0x02000004000000000000000000000000000000000020000000000000020000000000000000000000000000000000000000000000000000000000000000000001000000000000000000000008000000000000000000000000000020000020000008000000000002000000000000000000000000000000000000000010000040000000000000000000000000010000800000000020000000000000000000000000000000000000000000000000010000000000000000000000000004000000000000080002000000000000000000008000000000000000000100000080000000000010000000000000800000000000000000000000000000000000000000000000",
      "type": "0x2",
      "transactionHash": "0xa811c126ac5ae7876a24022e1dc6cfae56c0ef6223212146bc7a70ef6ee2eba3",
      "transactionIndex": "0x6f",
      "blockHash": "0x8b27c75b45f9c1eceb0100dd40030fd145b18d9ca80fcb12728c252c186c0f21",
      "blockNumber": "0x75fdd0",
      "gasUsed": "0xf0e5",
      "effectiveGasPrice": "0x173f28eac",
      "from": "0xcd7559aab753f89e17d50b38712e1043bbbaccca",
      "to": "0x779877a7b0d9e8603169ddbd7836e478b4624789",
      "contractAddress": null
    }
  ],
  "libraries": [],
  "pending": [],
  "returns": {},
  "timestamp": 1739867801,
  "chain": 11155111,
  "commit": "28d3802"
}