{
  "transactions": [
    {
      "hash": "0x1b4e253a32b15a4277067b5dd08d27a1c79eb610654e7cce55b3d29491c883d8",
      "transactionType": "CALL",
      "contractName": null,
      "contractAddress": "0x779877a7b0d9e8603169ddbd7836e478b4624789",
      "function": "transferAndCall(address,uint256,bytes)",
      "arguments": [
        "0x9DdfaCa8183c41ad55329BdeeD9F6A8d53168B1B",
        "3000000000000000000",
        "0x81d47b91d7e8db485429638ec0a0017d177c225ea4ddde7ecb2f8107645ee1f8"
      ],
      "transaction": {
        "from": "0xcd7559aab753f89e17d50b38712e1043bbbaccca",
        "to": "0x779877a7b0d9e8603169ddbd7836e478b4624789",
        "gas": "0x14cbb",
        "value": "0x0",
        "input": "0x4000aea00000000000000000000000009ddfaca8183c41ad55329bdeed9f6a8d53168b1b00000000000000000000000000000000000000000000000029a2241af62c00000000000000000000000000000000000000000000000000000000000000000060000000000000000000000000000000000000000000000000000000000000002081d47b91d7e8db485429638ec0a0017d177c225ea4ddde7ecb2f8107645ee1f8",
        "nonce": "0xd",
        "chainId": "0xaa36a7"
      },
      "additionalContracts": [],
      "isFixedGasLimit": false
    }
  ],
  "receipts": [
    {
      "status": "0x1",
      "cumulativeGasUsed": "0x7fc2bf",
      "logs": [
        {
          "address": "0x779877a7b0d9e8603169ddbd7836e478b4624789",
          "topics": [
            "0xddf252ad1be2c89b69c2b068fc378daa952ba7f163c4a11628f55a4df523b3ef",
            "0x000000000000000000000000cd7559aab753f89e17d50b38712e1043bbbaccca",
            "0x0000000000000000000000009ddfaca8183c41ad55329bdeed9f6a8d53168b1b"
          ],
          "data": "0x00000000000000000000000000000000000000000000000029a2241af62c0000",
          "blockHash": "0xcfce855039cc8d24d52d4a9718d1ba9b1e918e5af3e0e358f7e30edb2eceabc5",
          "blockNumber": "0x75f9a3",
          "transactionHash": "0x1b4e253a32b15a4277067b5dd08d27a1c79eb610654e7cce55b3d29491c883d8",
          "transactionIndex": "0x66",
          "logIndex": "0x8b",
          "removed": false
        },
        {
          "address": "0x779877a7b0d9e8603169ddbd7836e478b4624789",
          "topics": [
            "0xe19260aff97b920c7df27010903aeb9c8d2be5d310a2c67824cf3f15396e4c16",
            "0x000000000000000000000000cd7559aab753f89e17d50b38712e1043bbbaccca",
            "0x0000000000000000000000009ddfaca8183c41ad55329bdeed9f6a8d53168b1b"
          ],
          "data": "0x00000000000000000000000000000000000000000000000029a2241af62c00000000000000000000000000000000000000000000000000000000000000000040000000000000000000000000000000000000000000000000000000000000002081d47b91d7e8db485429638ec0a0017d177c225ea4ddde7ecb2f8107645ee1f8",
          "blockHash": "0xcfce855039cc8d24d52d4a9718d1ba9b1e918e5af3e0e358f7e30edb2eceabc5",
          "blockNumber": "0x75f9a3",
          "transactionHash": "0x1b4e253a32b15a4277067b5dd08d27a1c79eb610654e7cce55b3d29491c883d8",
          "transactionIndex": "0x66",
          "logIndex": "0x8c",
          "removed": false
        },
        {
          "address": "0x9ddfaca8183c41ad55329bdeed9f6a8d53168b1b",
          "topics": [
            "0x1ced9348ff549fceab2ac57cd3a9de38edaaab274b725ee82c23e8fc8c4eec7a",
            "0x81d47b91d7e8db485429638ec0a0017d177c225ea4ddde7ecb2f8107645ee1f8"
          ],
          "data": "0x0000000000000000000000000000000000000000000000004563918244f400000000000000000000000000000000000000000000000000006f05b59d3b200000",
          "blockHash": "0xcfce855039cc8d24d52d4a9718d1ba9b1e918e5af3e0e358f7e30edb2eceabc5",
          "blockNumber": "0x75f9a3",
          "transactionHash": "0x1b4e253a32b15a4277067b5dd08d27a1c79eb610654e7cce55b3d29491c883d8",
          "transactionIndex": "0x66",
          "logIndex": "0x8d",
          "removed": false
        }
      ],
      "logsBloom": "0x02000004000000000000000000000000000000000020000000000000020000000000000000000000000000000000000000000000000000000000000000000001000000000000000000000008000000000000000000000000000020000020000008000000000002000000000000000000000000000000000000000010000040000000000000000000000000010000800000000020000000000000000000000000000000000000000000000000010000000000000000000000000004000000000000080002000000000000000000008000000000000000000100000080000000000010000000000000800000000000000000000000000000000000000000000000",
      "type": "0x2",
      "transactionHash": "0x1b4e253a32b15a4277067b5dd08d27a1c79eb610654e7cce55b3d29491c883d8",
      "transactionIndex": "0x66",
      "blockHash": "0xcfce855039cc8d24d52d4a9718d1ba9b1e918e5af3e0e358f7e30edb2eceabc5",
      "blockNumber": "0x75f9a3",
      "gasUsed": "0xf0e5",
      "effectiveGasPrice": "0xe6743da",
      "from": "0xcd7559aab753f89e17d50b38712e1043bbbaccca",
      "to": "0x779877a7b0d9e8603169ddbd7836e478b4624789",
      "contractAddress": null
    }
  ],
  "libraries": [],
  "pending": [],
  "returns": {},
  "timestamp": 1739854190,
  "chain": 11155111,
  "commit": "28d3802"
}