{
  "transactions": [
    {
      "hash": "0xc503625e7f870bb4d417c38edc415de31e55eefc202e21b0b04a1558433c20a9",
      "transactionType": "CALL",
      "contractName": null,
      "contractAddress": "0xb9b39f50ba7ad05f911fad26bbe5bc0dc92fa096",
      "function": "mintNft(string)",
      "arguments": [
        "\"ipfs://bafybeig37ioir76s7mg5oobetncojcm3c3hxasyd4rvid4jqhy4gkaheg4/?filename=0-PUG.json\""
      ],
      "transaction": {
        "from": "0xcd7559aab753f89e17d50b38712e1043bbbaccca",
        "to": "0xb9b39f50ba7ad05f911fad26bbe5bc0dc92fa096",
        "gas": "0x3d622",
        "value": "0x0",
        "input": "0xda86f4a900000000000000000000000000000000000000000000000000000000000000200000000000000000000000000000000000000000000000000000000000000057697066733a2f2f62616679626569673337696f6972373673376d67356f6f6265746e636f6a636d3363336878617379643472766964346a71687934676b61686567342f3f66696c656e616d653d302d5055472e6a736f6e000000000000000000",
        "nonce": "0x15",
        "chainId": "0xaa36a7"
      },
      "additionalContracts": [],
      "isFixedGasLimit": false
    }
  ],
  "receipts": [
    {
      "status": "0x1",
      "cumulativeGasUsed": "0xd3f571",
      "logs": [
        {
          "address": "0xb9b39f50ba7ad05f911fad26bbe5bc0dc92fa096",
          "topics": [
            "0xddf252ad1be2c89b69c2b068fc378daa952ba7f163c4a11628f55a4df523b3ef",
            "0x0000000000000000000000000000000000000000000000000000000000000000",
            "0x000000000000000000000000cd7559aab753f89e17d50b38712e1043bbbaccca",
            "0x0000000000000000000000000000000000000000000000000000000000000000"
          ],
          "data": "0x",
          "blockHash": "0x1c3c805cfcc040aa1a888fad40a8d75b4c05e8c9f9138e3aabd5c80fbf0bc491",
          "blockNumber": "0x7634af",
          "transactionHash": "0xc503625e7f870bb4d417c38edc415de31e55eefc202e21b0b04a1558433c20a9",
          "transactionIndex": "0x7f",
          "logIndex": "0xcf",
          "removed": false
        }
      ],
      "logsBloom": "0x02000000000000000000000000000000000000000020000000000000000000000000000000000000000000000000000000000000000000000000000000000000000000000000000000000008000000000000000000000000000000000000000000000000020000000000000000000800000000000000000000000010000000000000000000000000000000000000000000000800008000000000000000000000000000000000000000000000000000000000000000000000000000000000000000080002000000000000000000000000000000000000000000000080000020000000000000000000000000000000000000000000000000000000000000000000",
      "type": "0x2",
      "transactionHash": "0xc503625e7f870bb4d417c38edc415de31e55eefc202e21b0b04a1558433c20a9",
      "transactionIndex": "0x7f",
      "blockHash": "0x1c3c805cfcc040aa1a888fad40a8d75b4c05e8c9f9138e3aabd5c80fbf0bc491",
      "blockNumber": "0x7634af",
      "gasUsed": "0x2c70d",
      "effectiveGasPrice": "0x843f6061",
      "from": "0xcd7559aab753f89e17d50b38712e1043bbbaccca",
      "to": "0xb9b39f50ba7ad05f911fad26bbe5bc0dc92fa096",
      "contractAddress": null
    }
  ],
  "libraries": [],
  "pending": [],
  "returns": {},
  "timestamp": 1740041919,
  "chain": 11155111,
  "commit": "ddd90d7"
}