{
  "transactions": [
    {
      "hash": "0x126bd34ce63c983c8d44673dabc40fa35ed648dd681ee20b9aae4bb1600b2b7b",
      "transactionType": "CALL",
      "contractName": null,
      "contractAddress": "0xa571518ae1b329f7e9f968770e3a046bb6aaaad0",
      "function": "claim(address,uint256,bytes32[],uint8,bytes32,bytes32)",
      "arguments": [
        "0xcd7559AAB753f89e17d50b38712e1043bbbACCCa",
        "25000000000000000000",
        "[0x0fd7c981d39bece61f7499702bf59b3114a90e66b51ba2c53abdf7b62986c00a, 0xe5ebd1e1b5a5478a944ecab36a9a954ac3b6b8216875f6524caa7a1d87096576]",
        "27",
        "0x41989dc832af5adcada4eee649f2a2960fa1c039d754cf98452feb348d46a5cb",
        "0x1313c06ffa216218babe19c910b574d46e7d0ae51dfad7552aa06e27c662654a"
      ],
      "transaction": {
        "from": "0xfaa00ae9e0b9d5b4e25ce7c335cd1ce76969db63",
        "to": "0xa571518ae1b329f7e9f968770e3a046bb6aaaad0",
        "gas": "0x1781c",
        "value": "0x0",
        "input": "0x4497a169000000000000000000000000cd7559aab753f89e17d50b38712e1043bbbaccca0000000000000000000000000000000000000000000000015af1d78b58c4000000000000000000000000000000000000000000000000000000000000000000c0000000000000000000000000000000000000000000000000000000000000001b41989dc832af5adcada4eee649f2a2960fa1c039d754cf98452feb348d46a5cb1313c06ffa216218babe19c910b574d46e7d0ae51dfad7552aa06e27c662654a00000000000000000000000000000000000000000000000000000000000000020fd7c981d39bece61f7499702bf59b3114a90e66b51ba2c53abdf7b62986c00ae5ebd1e1b5a5478a944ecab36a9a954ac3b6b8216875f6524caa7a1d87096576",
        "nonce": "0x0",
        "chainId": "0xaa36a7"
      },
      "additionalContracts": [],
      "isFixedGasLimit": false
    }
  ],
  "receipts": [
    {
      "status": "0x1",
      "cumulativeGasUsed": "0x9affb2",
      "logs": [
        {
          "address": "0xa571518ae1b329f7e9f968770e3a046bb6aaaad0",
          "topics": [
            "0xd8138f8a3f377c5259ca548e70e4c2de94f129f5a11036a15b69513cba2b426a"
          ],
          "data": "0x000000000000000000000000cd7559aab753f89e17d50b38712e1043bbbaccca0000000000000000000000000000000000000000000000015af1d78b58c40000",
          "blockHash": "0x11bd6bd1acfd329157fda504cdd089a1d59b29ece4652f6c27c108b0d736cfb0",
          "blockNumber": "0x76fb1e",
          "transactionHash": "0x126bd34ce63c983c8d44673dabc40fa35ed648dd681ee20b9aae4bb1600b2b7b",
          "transactionIndex": "0x8d",
          "logIndex": "0xb8",
          "removed": false
        },
        {
          "address": "0x06c96bf66abd9f767ee10a3e807e5a1a0eb72f89",
          "topics": [
            "0xddf252ad1be2c89b69c2b068fc378daa952ba7f163c4a11628f55a4df523b3ef",
            "0x000000000000000000000000a571518ae1b329f7e9f968770e3a046bb6aaaad0",
            "0x000000000000000000000000cd7559aab753f89e17d50b38712e1043bbbaccca"
          ],
          "data": "0x0000000000000000000000000000000000000000000000015af1d78b58c40000",
          "blockHash": "0x11bd6bd1acfd329157fda504cdd089a1d59b29ece4652f6c27c108b0d736cfb0",
          "blockNumber": "0x76fb1e",
          "transactionHash": "0x126bd34ce63c983c8d44673dabc40fa35ed648dd681ee20b9aae4bb1600b2b7b",
          "transactionIndex": "0x8d",
          "logIndex": "0xb9",
          "removed": false
        }
      ],
      "logsBloom": "0x02000000000000000000000000000000000080000000000000000000000200000000000000000020000000000000000000000000000000000000000200008000000000000000000000000008000000000000000000001000000000000000000000000000000000000000000020000000000000000000000000000010000000000000000000100000000800000000000000000000000000000000000000000000000000000000000000000000000000000000000000000000000000000000000000080002800000000000000000000000000000000000000000000082000000000000000000000000000000000000000000000001000000000000000000000000",
      "type": "0x2",
      "transactionHash": "0x126bd34ce63c983c8d44673dabc40fa35ed648dd681ee20b9aae4bb1600b2b7b",
      "transactionIndex": "0x8d",
      "blockHash": "0x11bd6bd1acfd329157fda504cdd089a1d59b29ece4652f6c27c108b0d736cfb0",
      "blockNumber": "0x76fb1e",
      "gasUsed": "0x1104d",
      "effectiveGasPrice": "0x1ac515ec3",
      "from": "0xfaa00ae9e0b9d5b4e25ce7c335cd1ce76969db63",
      "to": "0xa571518ae1b329f7e9f968770e3a046bb6aaaad0",
      "contractAddress": null
    }
  ],
  "libraries": [],
  "pending": [],
  "returns": {},
  "timestamp": 1740671453,
  "chain": 11155111,
  "commit": "db43053"
}