{
  "transactions": [
    {
      "hash": null,
      "transactionType": "CALL",
      "contractName": null,
      "contractAddress": "0xa571518ae1b329f7e9f968770e3a046bb6aaaad0",
      "function": "claim(address,uint256,bytes32[],uint8,bytes32,bytes32)",
      "arguments": [
        "0xcd7559AAB753f89e17d50b38712e1043bbbACCCa",
        "25000000000000000000",
        "[0x0fd7c981d39bece61f7499702bf59b3114a90e66b51ba2c53abdf7b62986c00a, 0xe5ebd1e1b5a5478a944ecab36a9a954ac3b6b8216875f6524caa7a1d87096576]",
        "27",
        "0x41989dc832af5adcada4eee649f2a2960fa1c039d754cf98452feb348d46a5cb",
        "0x1313c06ffa216218babe19c910b574d46e7d0ae51dfad7552aa06e27c662654a"
      ],
      "transaction": {
        "from": "0xfaa00ae9e0b9d5b4e25ce7c335cd1ce76969db63",
        "to": "0xa571518ae1b329f7e9f968770e3a046bb6aaaad0",
        "gas": "0x1781c",
        "value": "0x0",
        "input": "0x4497a169000000000000000000000000cd7559aab753f89e17d50b38712e1043bbbaccca0000000000000000000000000000000000000000000000015af1d78b58c4000000000000000000000000000000000000000000000000000000000000000000c0000000000000000000000000000000000000000000000000000000000000001b41989dc832af5adcada4eee649f2a2960fa1c039d754cf98452feb348d46a5cb1313c06ffa216218babe19c910b574d46e7d0ae51dfad7552aa06e27c662654a00000000000000000000000000000000000000000000000000000000000000020fd7c981d39bece61f7499702bf59b3114a90e66b51ba2c53abdf7b62986c00ae5ebd1e1b5a5478a944ecab36a9a954ac3b6b8216875f6524caa7a1d87096576",
        "nonce": "0x0",
        "chainId": "0xaa36a7"
      },
      "additionalContracts": [],
      "isFixedGasLimit": false
    }
  ],
  "receipts": [],
  "libraries": [],
  "pending": [],
  "returns": {},
  "timestamp": 1740671260,
  "chain": 11155111,
  "commit": "db43053"
}